:020000040800F2
:10000000680F002081020008014E0008CD42000860
:10001000FD4D00081D140008D1600008000000001C
:10002000000000000000000000000000E552000891
:100030001D1A000800000000A9520008E95200083B
:100040009B0200089B0200089B0200089B0200081C
:100050009B0200089B0200089B0200089B0200080C
:10006000611B0008691B00089B0200089B02000836
:100070009B0200089B0200089B0200089B020008EC
:100080009B0200089B0200089B0200089B020008DC
:100090009B0200089B0200089B020008711B0008DD
:1000A0009B0200089B0200089B0200089B020008BC
:1000B0009B0200089B0200089B0200089B020008AC
:1000C0009B0200089B0200089B0200089B0200089C
:1000D0009B0200089B020008C56000089B02000804
:1000E0009B0200089B0200089B0200089B0200087C
:1000F0009B0200089B0200089B0200089B0200086C
:100100009B0200089B0200089B0200089B0200085B
:100110009B0200089B020008515900089B0200083E
:100120009B0200089B0200089B0200089B0200083B
:100130009B0200089B0200089B0200089B0200082B
:100140009B0200089B0200089B0200089B0200081B
:100150009B0200089B0200089B0200089B0200080B
:100160009B0200089B0200089B0200089B020008FB
:100170009B0200089B0200089B0200080000000090
:100180009B0200089B02000800F002F800F068F8EB
:1001900014A696E8000CB244B344DA4501D100F04D
:1001A0005FF8BAE80F000FA696E83000A5EB04054B
:1001B00004EB0607AAEB0704A7F101074FEA1515A0
:1001C0004FEA3414A4F10104AC4201D300F048F822
:1001D00013F0010F18BFFB1A43F0010300F001F800
:1001E000DBE71847C0AD0000E0AD0000103A24BFC7
:1001F00078C878C1FAD8520724BF30C830C144BF8C
:1002000004680C6070470000704700000023002461
:1002100000250026103A28BF78C1FBD8520728BF16
:1002200030C148BF0B607047662909F035846429E6
:1002300000F00C81002070471FB509F020FC00F091
:10024000ADFD04000020002109F08CFB401C606023
:100250000020002109F070FBE0601FBD10B510BD4B
:1002600001F05EF81146FFF7E7FF06F045FE01F0EA
:1002700085F803B4FFF7F2FF03BC01F0C7F80000F4
:100280000948804709480047FEE7FEE7FEE7FEE72A
:10029000FEE7FEE7FEE7FEE7FEE7FEE70448054966
:1002A000054A064B70470000A15300088901000869
:1002B00068090020680F0020680B0020680B0020F0
:1002C00053EA020C00F069802DE9F04B4FF0000674
:1002D000002B1FBFB3FA83F503FA05F424FA05F6E1
:1002E0005E4012BF1643B2FA82F502FA05F4C5F178
:1002F00020051EBF22FA05FC44EA0C04203556EA0C
:10030000044C4FEA144418BF641C4FF000084FF02F
:100310000009904271EB030C39D3002919BFB1FADF
:1003200081F701FA07F6B0FA80F700FA07F6C7F18D
:1003300020071EBF20FA07FC46EA0C062037B6FB52
:10034000F4FCA7EB0507103F07F01F0BCBF12006CD
:100350002CFA06F60CFA0BFB44BFB3460026202FFE
:10036000A4BF5E464FF0000B5BEA060C08BF4FF0DF
:10037000010B19EB0B0948EB0608ABFB027C06FBF3
:1003800002CC0BFB03CCC01B71EB0C01C1E70B468D
:10039000024641464846BDE8F08B13B5084318BFF6
:1003A0004FF0FF300146AFF30080BDE81C407047BE
:1003B00053EA020C23D010B54C1084EA530404D540
:1003C0004042C1F1000138BF491E1B4204D55242D0
:1003D000C3F1000338BF5B1EFFF772FF14F0804FBC
:1003E00004D04042C1F1000138BF491E14F0004F53
:1003F00004D05242C3F1000338BF5B1E10BD13B5D9
:1004000040424FF0000070EB0104B8BF012001F042
:10041000004100281CBF6FF000414FF0FF30AFF3E8
:1004200000801CBD0FB41CB5074B06AA7B4469466F
:100430000090059800F055FC0020694600F064FC2F
:100440001CBC5DF814FB0000D90800002DE9F04148
:100450000646002410687529314616A510D0AFF362
:100460000080002802DA404213A507E031688A07BD
:1004700001D512A502E0490704D511A5012401E028
:10048000AFF3008000210A2206F1240709E0B0FB47
:10049000F2FCB0FBF2F302FB1C003030785418463B
:1004A000491C0028F3D123462A463046BDE8F041D6
:1004B00000F0AAB9000000002D0000002B00000091
:1004C000200000002DE9F0474FF0000A894604465D
:1004D000C0F820A02046E1688847002876D025286B
:1004E00006D0D4E901219047206A401C2062F1E740
:1004F000E168204600258847C4F81CA0064600276E
:10050000C4F818A02A2E09D0304609F00DFA38B3E5
:1005100004EB8708303EC8F8186019E059F8041B4E
:10052000204604EB87029161E1688847012F064667
:1005300018D1E069002820DA25F020051DE0D8F860
:10054000180000EB800006EB40003038C8F81800B7
:100550002046E1688847064609F0E6F90028EED112
:10056000012F0AD02E2E08D12046E16888477F1C33
:100570000646022F45F02005C4DBA069002803DAF7
:10058000404245F00105A061E80701D025F01005C3
:10059000B6B1A6F14100192802D8203645F400650D
:1005A0004A463146204625604D46FFF73DFE58B18C
:1005B000012806D0ED1D25F0070000F1080989E7A4
:1005C00004E005F1040985E730468AE7206ABDE8C2
:1005D000F08700000FB400B58DB010A9099000910C
:1005E0000B904FF0FF300A9000200C9006487844A2
:1005F0000690064878446A4607900F9909A800F0CB
:100600009DFB0DB05DF814FB6B0700008307000035
:100610002DE9FF5F1D464FF0FF3B91464FF000086C
:100620005F46D5E90146A96901987F1C8847296A78
:10063000824688470028F6D1BAF1FF3F0CD0002E41
:1006400024F4C06419DD600614D5BAF12B0F09D06B
:10065000BAF12D0F0ED103E0584604B0BDE8F09F6B
:1006600044F48064A96901987F1C8847761E8246FD
:10067000002E02DDBAF1300F03D0B9F1000F26D001
:1006800032E0A969761E01987F1C44F40074884703
:10069000002E824605DDBAF1780F06D0BAF1580F68
:1006A00003D0B9F1000F10D01EE0B9F1000F02D055
:1006B000B9F1100F18D1A969761E01987F1C24F496
:1006C000007488478246102002E0082000E00A20DB
:1006D000814609E0A96908FB0908761E01987F1C7C
:1006E00044F4007488478246002E05DD4946504692
:1006F00000F00FFB0028EDDAE96901988847A005B2
:1007000002D46FF00100A8E7E00725D1600613D5F9
:10071000600502D5C8F1000000E0404629680A1DC6
:100720002A600968220501D5087015E0220701D565
:10073000088011E008600FE02868011D296000684A
:10074000210502D580F8008006E0210702D5A0F837
:10075000008001E0C0F8008038467EE740EA0103EF
:1007600010B59B070FD1042A0DD310C808C9121F5A
:100770009C42F8D020BA19BA884201D9012010BD94
:100780004FF0FF3010BD1AB1D30703D0521C07E061
:10079000002010BD10F8013B11F8014B1B1B07D1C5
:1007A00010F8013B11F8014B1B1B01D1921EF1D136
:1007B000184610BD4FF0000200B513469446964609
:1007C000203922BFA0E80C50A0E80C50B1F1200164
:1007D000BFF4F7AF090728BFA0E80C5048BF0CC012
:1007E0005DF804EB890028BF40F8042B08BF704770
:1007F00048BF20F8022B11F0804F18BF00F8012BE2
:1008000070477047704770472DE9F0470D4699468D
:100810009246044600F124080168880604D5E06980
:1008200021F01001216000E00120A84201DD471BFA
:1008300000E00027A1697A1902EB0900081AA061FB
:100840002078C00602D42046AFF30080002608E0DE
:10085000D4E901211AF806009047206A401C761C52
:1008600020624E45F4DB2078C0060AD52046AFF35F
:10087000008006E0D4E9012130209047206A401C26
:100880002062381EA7F10107F4DC07E0D4E901215A
:1008900018F805009047206A401C2062281EA5F128
:1008A0000105F3DC2046AFF300802078000602D576
:1008B0000220BDE8F0870120FBE72DE9FF4F0C4641
:1008C0001E464FF0FF378BB0D2E90001DDF86080A3
:1008D0000A908A46C1F30A5505B93D4600210846EB
:1008E0004FF00000BAF1000F00F4400005DA00EB11
:1008F00080004FF4400101EA50004FEA9059B9F1ED
:10090000010F00DDB9460A9850EA4A000ED044F6BD
:100910001050A5F2FF3545432F14B8F1000F1ED03B
:100920007542291E1EDDC9F100021CE0B8F1010F5D
:100930004FF0000001D0302103E0F24305E02154E4
:10094000401CB042FBDB30460022002121540B99B1
:10095000C1F80880C1E900200FB0BDE8F08FBD1BD1
:100960006D1CDEE74A4600DA694206A800F062FC28
:1009700006AB93E8070003AB83E8070050460A99EB
:1009800008F0F2FB8DE80700A0F500501F3800903A
:100990000398002D0ADD42F21F014A460844002355
:1009A00003A90390684608F05BFE09E0A0F500503B
:1009B0004A461F38002303A90390684608F065FEE5
:1009C0008DE807000004000C03D04FF0FF30410811
:1009D00000E01046B8F1000F03D000220092154647
:1009E0001EE0751E05D400F0DDF9303262556D1E33
:1009F000F9D5B3460122084302D000227F1C04E04F
:100A00002078302801D100227F1E002A099784D047
:100A10001DE0112D07DA00F0C5F9303262556D1C6A
:100A200050EA0102F5D1084302D00098C8B10EE0A7
:100A30000021681E05E0235C625C63542254401E62
:100A4000491C8142F7DBAB46A81B401E09900020E1
:100A500004F80B000B98099AC0F80880C0E9002B35
:100A60007AE711264FF0000857E72DE9F04F884646
:100A70000446D21D22F0070191B0D1E90001CDE971
:100A80000A0108F039FF02460B98C00F01D02D2053
:100A900007E02068810701D52B2002E0202101EA30
:100AA000C000032A099001D0072A05DB034641460E
:100AB000204600F0C5F90BE12078800601D5E069F9
:100AC00000E00620B8F1650F814606D0B8F1660F48
:100AD00018D0B8F1670F70D131E00020B9F1110FD3
:100AE000009001DB112301E009F101030AAA01A929
:100AF0000CA8FFF7E2FEDDE90C70002609F1010504
:100B0000834647E001204B4600904FF000470AAA79
:100B100001A90CA8FFF7D1FEDDE90DB00C995D46E7
:100B2000002610B909F101000D18B9EB050003D436
:100B3000C0F1FF3609F10105A5EB09002BE0B9F181
:100B4000010F01DA4FF001090020B9F1110F0090F7
:100B5000484601DD112300E003460AAA01A90CA8BA
:100B6000FFF7ABFEDDE90C704D460026834620788A
:100B700000070AD4AB4500DA5D4601A8012D04DD6B
:100B8000411911F8011C302907D04F4502DA17F13D
:100B9000040F04DA012082460FE06D1EEEE7002FFD
:100BA00002DCED1B3E4403E0781CA84200DD7D1C06
:100BB000B81B00F1010A4FF000472078000703D46A
:100BC000AA4501DB4FF0FF3A0021B7F1004F0DF1CC
:100BD00043088DF8431024D002202B23002F01DA84
:100BE0007F422D230A21021EA0F1010000DC5FB12B
:100BF00097FBF1FC97FBF1F201FB1C7C17460CF113
:100C0000300C08F801CDEEE7A8F10100037021884F
:100C1000090501D5452100E06521A0F1010800F892
:100C2000011C09980FA9A1EB0807FF1D00B10120C5
:100C3000411901EBEA70A1693844081A401EA0610D
:100C40002078C00602D42046AFF30080099828B16E
:100C5000D4E901219047206A401C20622078C00618
:100C600022D52046AFF300801EE0002E04DBB34502
:100C700002DD01A8805D00E03020D4E90121904729
:100C8000206A401C2062761CAAF101005FEA000A7B
:100C90000AD100F083F8C0680168405CD4E9012102
:100CA0009047206A401C2062281EA5F10105DCDC6B
:100CB00007E0D4E9012118F8010B9047206A401C95
:100CC0002062381EA7F10107F3DC2046AFF3008055
:100CD000032011B041E6000001694A1C0261087856
:100CE000704700B58FB0CDE901310021059105496C
:100CF0007944CDE9031011466846FFF7E3FB0FB0D6
:100D000000BD0000E5FFFFFF0A6802F8010B0A6062
:100D100070473A2800D2303820F02002412A01D30F
:100D2000A2F13700884201D34FF0FF307047000036
:100D3000026811441378016018467047D160054974
:100D400079445161044979441162002111611146CD
:100D500000F0B6B8EDFFFFFFE5000000426842B1C9
:100D6000016811F8013B23B1521EC0E90012184678
:100D700070470121C160881E704742685AB1C3683C
:100D8000016843B983688B4205D0491E521CC0E9F3
:100D90000012002070474FF0FF3070470048704746
:100DA0003801002030B5B0F10A0271F100034FEABA
:100DB000900E4EEA817EB0EB0E0061EB91014FEA9E
:100DC000101E4EEA017E10EB0E0041EB11114FEAAE
:100DD000102E4EEA016E10EB0E0041EB11214FEA8E
:100DE000104E4EEA014E10EB0E0041EB114140183F
:100DF00041F100014FEAD00040EA41704FEAD101D1
:100E00004FEA810444EA907410EB800544EB01043E
:100E10006D1944EB0404521BA3414FF0000348BF7B
:100E20000A3200D530BD401C41F1000130BD10B583
:100E3000044600F09BFA0068005D00F0010010BD60
:100E40002DE9F0411F46044603260168072A01F4F4
:100E5000006004DB08B116A505E016A503E008B1A3
:100E600015A500E015A521F010002060A069C01EA6
:100E7000A0610FB1401EA0612046AFF300804FB1CA
:100E8000D4E9012138469047206A401C2062C01CEA
:100E9000206206E0206AFAE7D4E9012115F8010B87
:100EA0009047761EF8D22046AFF30080BDE8F0816F
:100EB0004E414E006E616E00494E4600696E6600FE
:100EC0002DE9F34F4FF0000A0C4656468DB0012035
:100ED0000C9001F10C000B9062690B980121904776
:100EE000051E2DD0252D2CD0216A8847C0B16269FE
:100EF0000B9801219047216A88470028F7D1626941
:100F0000411E0B98904700E0761CA1690D98884718
:100F1000216A88470028F7D1E1690D988847DBE707
:100F2000A1690D988847A842074601D1761CD3E7EE
:100F3000E1690D9888477F1C02D1BAF1000F6FD08C
:100F40006BE162690B9800273D46394690472A2895
:100F500004D162690B98012190470125DFF8D08206
:100F600062690B9801219047A0F130010A290AD249
:100F70004745E5DC07EB870100EB4107303FDFD455
:100F800045F01005ECE7E90601D46FF000476C2846
:100F90000AD04C2814D0682815D06A280DD074289F
:100FA0001CD07A281AD01DE062690B980121904765
:100FB0006C2802D045F0040514E045F002050DE070
:100FC00045F020050AE062690B98012190476828E6
:100FD00002D045F0080505E045F4006562690B980C
:100FE00001219047C4E9015765283DD019DC5828F4
:100FF0007AD00CDC452837D004DC252826D04128BF
:101000009ED131E046282FD0472899D12CE05B288B
:1010100077D0612828D063287CD0642823D15AE077
:10102000F6E06F2848D008DC66281DD067281BD062
:10103000692821D06E2816D127E0702845D0732862
:1010400068D0752847D078280DD14DE0A1690D985A
:101050008847252805463FF469AFE1690D98884720
:101060006D1C3FF46AAFD8E00D9923466A466FF0D5
:101070000100AFF30080C5E045F0400023464FF08B
:1010800000026060A80736D43EE0E8077FF447AF6F
:101090002068011D21600068290501D506701BE745
:1010A000290701D5068017E7A90703D5F117C0E97D
:1010B000006111E706600FE745F0400023464FF05E
:1010C00008026060A80716D41EE040F60E0125EA6B
:1010D0000100606016E045F0400023464FF00A0230
:1010E0006060A80707D40FE045F040006060A807E3
:1010F00008D5234610220D996FF00100AFF3008050
:1011000080E007E0102223460D996FF00100FFF701
:101110007FFA77E04FF0000963284F46C8464B46F8
:10112000CB4602D05B2806D038E0E80601D4012087
:10113000A060012732E06269D4F80CB00B9801215D
:1011400090475E2807D14FF0010949466269D4F8FB
:101150000CB00B989047216939B900210A4603ABBE
:1011600043F82120491C0829FADBD8B3216949B387
:1011700008F1010862690B98012190475D28F4D1BC
:10118000B9F1000F09D0002003A951F82020D24363
:1011900041F82020401C0828F7DB03AB2069002819
:1011A00020794FEA40701ED05B462246CDF8008081
:1011B000CDE901970D9900286FF0010020DAAFF317
:1011C00000801FE0C11703AA00EBD1614B1121F091
:1011D0001F0102EB8302411A136801208840034378
:1011E0001360C7E719E00D99224600286FF001004F
:1011F000009702DAAFF3008004E0AFF3008001E073
:10120000AFF3008000280ADA401C06D10C9820B108
:101210004FF0FF300FB0BDE8F08F5046FAE7E90716
:1012200001D10AF1010A064400200C9054E60000A6
:10123000CCCCCC0C2DE9F047814616468AB0354817
:1012400078440DC88DE80D0032487844801C03AC0A
:101250000DC884E80D0041F69B300844372190FB0F
:10126000F1F290FBF1F5A5F1800501FB12041B3CA6
:1012700002D56442012000E00020DFF898A08046FB
:101280000027FA44AAF1BE0A0EE0E0070AD032466F
:10129000684607EB470101230AEB810108F0F5F9E5
:1012A0008DE8070064107F1C002CEED1194F7F449D
:1012B000AE3F19E0E80715D007EB04100DF1180A4E
:1012C00090E80E008AE80E00C068F04201D198193B
:1012D00008903246012306A903A808F0D6F903AB0B
:1012E00083E807006D10641C002DE3D14FF001036B
:1012F00032466946B8F1000F03A802D008F0B0F9F1
:1013000001E008F0C2F9C9E90001C9F808200AB0F3
:10131000BDE8F087D488000000487047180100201D
:101320007546FFF7F9FFAE4605006946534620F0C3
:101330000700854618B020B5FEF7B0FFBDE8204095
:101340004FF000064FF000074FF000084FF0000B81
:10135000AC46ACE8C009ACE8C009ACE8C009ACE8F0
:10136000C00921F007018D467047000010B5FFF756
:1013700015FD001D10BD00BFED85000010B5044631
:10138000AFF300802046BDE81040FEF772BF0000BA
:1013900030B44FF0013C50F8042B51F8043BCCFA28
:1013A00052F4D51A20D1FCB950F8042B51F8043B63
:1013B000CCFA52F4D51A17D1B4B950F8042B51F81D
:1013C000043BCCFA52F4D51A0ED16CB950F8042B68
:1013D00051F8043BCCFA52F4D51A05D1002CDAD0DE
:1013E00030BC4FF00000704729BAB1FA81F111F01A
:1013F0001801D1F120008440F2D1CA40CB4012F054
:10140000FF0213F0FF0330BCD01A704701491820C7
:10141000ABBEFEE72600020070470000FEE70000BA
:10142000B0B540F28470C2F2000003684FF6211C90
:10143000586A6425414240F2E810C2F20000448834
:101440000AB20C1B4FF6FF7ECFF6FF7C6C43B2F561
:10145000DC6F01808480418002DB012204E000BF58
:1014600062454FF6FF7205DAC1881144C180002140
:101470005962418040F61401C2F200010B68596ABA
:1014800044890AB20C1B6C43B2F5DC6F0181848184
:10149000418103DB4FF0010E03E000BF6245A8BFAE
:1014A000B0BDC1897144C181002159624181B0BD83
:1014B00010B50021044607F09BFC04F1F000002168
:1014C00007F096FC40F2C430C2F20000002107F0A1
:1014D0008FFC00200021BDE8104003F051BB00004C
:1014E00010B50121044607F083FC04F1F00001214E
:1014F00007F07EFC40F2C430C2F200000121BDE8DA
:10150000104007F075BC0000F0B581B02DED068BE2
:10151000B0EE418A0029044650D0012940F0CA802B
:101520009168042900F2B0800120DFE801F0039700
:10153000A1A79B00D2E9000140F2D0260844C2F2E4
:10154000000601EE100AB061F8EEC10A40F2C430A4
:101550009FED5B1AC2F2000000F11001B0EE40AA4C
:10156000B0EE410A07F0B8FB86ED070A30EE0A0A32
:1015700020EE089A00F046FBF0EE400A04F110015C
:101580002046B0EE490A07F0A7FB86ED080A96ED63
:10159000070A04F1F0053AEE400A20EE088A00F04E
:1015A000ABFBF0EE400A04F580712846B0EE480A25
:1015B00007F092FB86ED090A6CE000BF92ED010A8C
:1015C00040F2D026B8EEC00A20EE200ABDEEC00AD6
:1015D000C2F2000640F2C43086ED060AF8EEC00AF8
:1015E000C2F200009FED360A00F11001174607F025
:1015F00073FB86ED070A20EE089A00F003FBF0EE7D
:10160000400A04F110012046B0EE490A07F064FBDD
:1016100086ED080A96ED070A04F1F00520EE488AE7
:1016200000F06AFBF0EE400A04F580712846B0EE47
:10163000480A07F051FB96ED081A86ED090ABDEE3F
:10164000C11ABDEEC00A11EE100A10EE101A03F016
:1016500097FA7868013003282CD20520BDEC068B60
:1016600001B0F0BD0420BDEC068B01B0F0BD00BFA1
:101670000220BDEC068B01B0F0BD00BF0320BDEC25
:10168000068B01B0F0BD00BF40F2D020C2F20000D6
:1016900090ED090A40F2D020C2F2000090ED081A45
:1016A000BDEEC00ABDEEC11A11EE100A10EE101AFE
:1016B00003F066FA0020BDEC068B01B0F0BD00BF60
:1016C0000000000010B540F2BC01C2F2000191ED33
:1016D000000A40F2B401C2F20001D1ED000A40F26A
:1016E0004041C2F2000191ED001A40F23C41C2F2C9
:1016F0000001D1ED001A40F2D401C2F2000191EDD7
:10170000002A40F2A401C2F20001D1ED002A40F209
:10171000AC01C2F2000191ED003A40F2C401C2F204
:101720000001D1ED003A40F2CC01C2F2000191ED8E
:10173000004A044607F05EFB40F2F800C2F20000E7
:1017400090ED000A40F2F000C2F20000D0ED000A75
:1017500040F23C60C2F2000090ED001A40F23860A6
:10176000C2F20000D0ED001A40F21010C2F20000E8
:1017700090ED002A40F2E000C2F20000D0ED002A15
:1017800040F2E800C2F2000090ED003A40F2001092
:10179000C2F20000D0ED003A40F20810C2F20000A0
:1017A00090ED004A04F1F00007F024FB40F2B8008D
:1017B000C2F2000090ED000A40F24440C2F2000084
:1017C000D0ED000A40F2B000C2F2000090ED001A25
:1017D00040F29C00C2F20000D0ED001A40F2D000AE
:1017E000C2F2000090ED002A40F2A000C2F2000018
:1017F000D0ED002A40F2A800C2F2000090ED003ABD
:1018000040F2C000C2F20000D0ED003A40F2C80041
:10181000C2F2000090ED004A04F1780007F0EAFA05
:1018200040F2F400C2F2000090ED000A40F2406085
:10183000C2F20000D0ED000A40F2EC00C2F200005B
:1018400090ED001A40F2D800C2F20000D0ED001A6C
:1018500040F20C10C2F2000090ED002A40F2DC00D1
:10186000C2F20000D0ED002A40F2E400C2F2000013
:1018700090ED003A40F2FC00C2F20000D0ED003AD8
:1018800040F20410C2F2000090ED004A04F5B4707A
:1018900007F0B0FA00F070F904F04AF840F26C007A
:1018A000C2F2000090ED000A40F2BC30C2F200002B
:1018B000D0ED000A40F26800C2F2000090ED001A7C
:1018C00040F2B830C2F20000D0ED001A40F27800C9
:1018D000C2F2000090ED002A40F26000C2F2000067
:1018E000D0ED002A40F26400C2F2000090ED003A10
:1018F00040F27000C2F20000D0ED003A40F27400F5
:10190000C2F2000040F2403490ED004AC2F20004FE
:10191000204607F06FFA2046012107F069FA40F2ED
:101920008C00C2F2000090ED000A40F2C030C2F21A
:101930000000D0ED000A40F28800C2F2000090EDF5
:10194000001A40F27C00C2F20000D0ED001A40F212
:101950009800C2F2000090ED002A40F28000C2F22E
:101960000000D0ED002A40F28400C2F2000090EDA9
:10197000003A40F29000C2F20000D0ED003A40F28E
:101980009400C2F2000090ED004A40F2C430C2F26E
:10199000000007F02FFA012010BD000010B5002153
:1019A000044607F025FA04F17800002107F020FA38
:1019B00004F1F000002107F01BFA04F5B4700021D7
:1019C00007F016FA40F24030C2F20000002107F0A2
:1019D0000FFA00200021BDE8104003F0D1B800004C
:1019E00010B50121044607F003FA04F17800012143
:1019F00007F0FEF904F1F000012107F0F9F904F510
:101A0000B470012107F0F4F940F24030C2F2000056
:101A10000121BDE8104007F0EBB90000704700005D
:101A2000B0B582B040F26024C2F200042278052AE8
:101A300048D8DFE802F00323094729375E283FD062
:101A400040283FD101203CE00D281FD00A2821D199
:101A500000201EA20D4620800B1D01F1080C04F190
:101A60000C0011462A46CDF800C0FEF7B3FD2868E9
:101A700060606868A06002B0B0BD00BF0D2809D1E9
:101A80000220207002B0B0BD0D2803D105202070C7
:101A900002B0B0BD617862181073481C607002B06B
:101AA000B0BD00BF0A280DD10020A21C24F80C0BE9
:101AB00005A1204602B0BDE8B040FEF78BBD00BFD7
:101AC0000420208002B0B0BD25642E0025642E25A0
:101AD000642E25642E00000010B540F26C00C2F2A6
:101AE000000090ED000A40F2BC30C2F20000D0EDE0
:101AF000000A40F26800C2F2000090ED001A40F2C5
:101B0000B830C2F20000D0ED001A40F27800C2F204
:101B1000000090ED002A40F26000C2F20000D0ED1B
:101B2000002A40F26400C2F2000090ED003A40F258
:101B30007000C2F20000D0ED003A40F27400C2F230
:101B4000000040F2403490ED004AC2F2000420460A
:101B500007F050F920460121BDE8104007F048B9D0
:101B6000042000F067BA0000082000F063BA00000B
:101B7000202000F05FBA0000B0B540F28474C2F2D9
:101B8000000420463C2101F069FB40F61405C2F236
:101B9000000528463C2101F061FB206800214162DC
:101BA00040F2E8122868C2F200025180D1804162FE
:101BB00040F2CC705181C2F20000D181BDE8B0404A
:101BC00001F06AB940F28471C2F2000140F2E810FB
:101BD0000968C2F20000B0F90620496A9FED081AB0
:101BE00009B200EE101AB8EEC00A80EE010A01EE4A
:101BF000102AB8EEC11A31EE000A80ED060A7047CD
:101C00000000DCC440F2E810C2F20000B0F9041099
:101C10009FED281A00EE101AB8EEC00A80EE010AF5
:101C200090F8401081B9012180ED080A80ED090A81
:101C300080ED0A0A80ED0B0A80ED0C0A80ED0D0A9A
:101C400080ED0E0A80F84010C16B00F1200202EB1B
:101C5000810282ED000A90ED080A90ED091A90EDDC
:101C60000A2A90ED0B3A30EE010A90ED0C4A30EE64
:101C7000020A90ED0D5A30EE030A90ED0E6A30EE36
:101C8000040A30EE050A30EE060AB1EE0C1A80EEB8
:101C9000010A42F293420131C9F2492252FB011278
:101CA000931003EBD272C2EBC202891AC16380EDBA
:101CB000040A70470000DC4440F61401C2F200013F
:101CC00040F2E8100968C2F20000B0F90E20496A3B
:101CD0009FED081A09B200EE101AB8EEC00A80EEA5
:101CE000010A01EE102AB8EEC11A30EE010A80EDA9
:101CF000070A70470000DC4440F2E810C2F200001E
:101D0000B0F90C109FED281A00EE101AB8EEC00AB8
:101D100080EE010A90F8641081B9012180ED110A6A
:101D200080ED120A80ED130A80ED140A80ED150A89
:101D300080ED160A80ED170A80F86410016E00F13C
:101D4000440202EB810282ED000A90ED110A90ED4F
:101D5000121A90ED132A90ED143A30EE010A90ED2C
:101D6000154A30EE020A90ED165A30EE030A90ED55
:101D7000176A30EE040A30EE050A30EE060AB1EEBC
:101D80000C1A80EE010A42F293420131C9F2492253
:101D900052FB0112931003EBD272C2EBC202891AFA
:101DA000016680ED050A70470000DC442DE9F04132
:101DB0002DED068B40F2D028054640F29C00C2F281
:101DC0000008C2F2000098F8001080ED001A40F2FE
:101DD000D800B0EE608AB0EE409AC2F2000080ED0A
:101DE000001A31B903F062FA03F06EFA012088F8A4
:101DF0000000B1EE490A05F1780485ED339A85EDCE
:101E0000340A05F5B47685ED6F9A85ED700AFFF713
:101E1000D9FEF0EE400A05F188012046B0EE480AEE
:101E200006F05AFFB0EE409A88ED020AFFF7CAFEAC
:101E3000B0EE40AAFFF740FF40F2403408F1280717
:101E4000C2F20004F0EE400A2046B0EE4A0A3946DB
:101E500006F042FF88ED010A39EE409AFFF7D2FE04
:101E6000F0EE400A05F110012846B0EE490A06F0EE
:101E700033FF88ED030AFFF71FFFF0EE400A05F578
:101E8000BC713046B0EE480A06F026FFB0EE408A3C
:101E900088ED040A05F1F006FFF794FEB0EE409AD3
:101EA000FFF70AFFF0EE400A2046B0EE490A394635
:101EB00006F012FF88ED010A38EE008AFFF71CFFDA
:101EC000F0EE400A05F580713046B0EE480A06F0A3
:101ED00003FF98ED031A88ED050ABDEEC11ABDEEA9
:101EE000C00A11EE100A10EE101A02F049FE98ED29
:101EF000020A98ED041AB5EE400A0020F1EE10FA3D
:101F000008BF0120B5EE401A0021F1EE10FA08BF1B
:101F10000121084001284FF000050DD100200021CB
:101F200002F02EFE0120C82104F004FA00281EBF92
:101F300088F80050A56401252846BDEC068BBDE855
:101F4000F081000070B5866D044600F063F994F8E6
:101F50003510022928D105462068216C026822F03C
:101F600016020260426922F08002426109B9A16C46
:101F700019B1016821F008010160016821F0010137
:101F8000016000BF20680068C00715D000F042F96A
:101F9000401B0628F6D320206065032084F8350016
:101FA000002184F8341070BD80206065012000217C
:101FB00084F8341070BD00BFE06D3F2101FA00F0DD
:101FC000B060012084F835000020002184F834102E
:101FD00070BD000090F83510022909D1052180F864
:101FE00035100068016821F0010101600020704790
:101FF0008021416501207047B0B5044600F00AF920
:10200000054640F20000C2F200000078611C18BFD3
:10201000044400BF00F0FEF8401BA042FAD3B0BD5C
:10202000042818BF704741F20040C4F2020040216A
:1020300000F0E2B843F61441C4F201010A6802421A
:1020400014BF08607047FFF7EBBF00002DE9F04FA9
:1020500083B000F1200200F13E4741F600450092B6
:1020600007F1FF77C4F2020508224FEAB726A8421B
:1020700008BF072200254FF000084FF00009072E87
:1020800038BF4FEAB72201920AE000BF09F1010907
:1020900008F10208B9F1100F05F1040500F0A28063
:1020A0000F68012202FA09FE17EA0E0AEED0D1F8F3
:1020B00004C003220CF003077E1E02FA08F4012E6E
:1020C0006FEA040B12D88468CE6804EA0B0406FA9F
:1020D00008F634438460446824EA0E06CCF3001406
:1020E00004FA09F42643466004E000BF032F01D13F
:1020F00003271EE0C6688C6806EA0B0604FA08F49B
:102100002643022FC66014D16FF00302009E02EA3C
:10211000590756F807C005F01C040F220B69A240AE
:102120002CEA0202A3401A43F251D1F804C00CF089
:102130000307026807FA08F302EA0B021A431CF4C9
:10214000403F0260A2D0002243F644030292C4F250
:1021500002031A6843F6004442F480421A601A6887
:10216000C4F2010402F480420292029A29F00302AE
:102170004FF6084C2244CFF6FF7C52F80C3005F0A5
:102180000C070F26BE40B343019E06FA07F73B43F8
:1021900042F80C30A2684B6842EA0A0743F60C4C3E
:1021A000DE0258BF22EA0A07A760C4F2010CDCF87D
:1021B00000209E0242EA0A0758BF22EA0A07CCF82A
:1021C000007062689E0342EA0A0758BF22EA0A07C3
:1021D00067602268DB0342EA0A0758BF22EA0A075F
:1021E000276053E703B0BDE8F08F000000690840A6
:1021F00018BF012070470000426902EA01039143C1
:1022000041EA034181617047002A08BF09048161E6
:102210007047000040F66410C2F20000006870478A
:10222000002804BF01207047F0B581B0044690F843
:102230003D0028B9002084F83C00204600F050F909
:10224000242084F83D002068016821F0010101602C
:10225000016841F400410160016821F4004101601E
:1022600000F0E2FA636848F2A16CC0F2010C40F69B
:102270000011C0F23D0163453CBF48F28041C0F20D
:102280001E01884202D2012001B0F0BD4DF68361EB
:10229000C4F21B31A0FB01122168970CD1F804E0B5
:1022A0004FF496762EF03F0545EA92454D60774310
:1022B00048F638160D6AC0F24106A7FB067625F0EF
:1022C0003F07634538BF960C721C3A430A62CA69DD
:1022D00048F2A0664CF6FF77C0F20106B34222EA4C
:1022E00007020BD801385B00B0FBF3F001306FF34D
:1022F0001F30042898BF04201BE000BFA7680138E6
:1023000057B119277B43B0FBF3F001306FF31F3057
:1023100070B100F5804007E003EB4303B0FBF3F03E
:1023200001306FF31F3018B100F5004001E000BF2D
:1023300001201043C8610868D4E9072320F0C000D9
:10234000104318430860886848F2FF3204F10C0714
:1023500090438CCF18431043A6698860C86820F06A
:10236000FF0038433043C860086840F0010008604F
:1023700000202021206484F83D10206384F83E0072
:1023800001B0F0BD2DE9F04383B0994616460F46E3
:102390000446FFF73FFF94F83D10202924D105465D
:1023A000206800BF816989071AD5FFF733FF411BF9
:1023B00020681A29F6D381698907F3D500202021E6
:1023C000206384F83D1084F83E00216C41F0200128
:1023D000216484F83C00022003B0BDE8F08300BF14
:1023E00094F83C10012903D1022003B0BDE8F0832A
:1023F000012284F83C200368DDE90B180A9ADB0708
:1024000003D1036843F001030360036823F400630E
:102410000360212084F83D00402084F83E00002025
:10242000206462626185608D394620850020CFF688
:10243000FF70E062204632464B46CDE9008501F050
:1024400047FF18B1012003B0BDE8F083208D98B993
:10245000204641462A4601F09FFF88B3206C04289D
:10246000F0D12068016841F400710160012003B0DF
:10247000BDE8F0830004EBD0204641462A4602F036
:102480003BF90028EAD1616A2268084610F8013B4E
:102490001361238D6062581E2085678D013F67851B
:1024A00057697F07E6D50704E4D048781061881C97
:1024B0006062981E2085618D01396185DAE700BF71
:1024C0002068016841F400710160202084F83D001B
:1024D000002084F83E0084F83C0003B0BDE8F0839F
:1024E000B0B586B045F200410068C4F20001002496
:1024F00088420594CDE903440294019402D006B0C9
:10250000B0BD00BF43F630050094C4F20205286850
:1025100040F002002860286800F002000090009857
:10252000C02001901220CDE9020403200490042071
:10253000059001F5D83001A9FFF788FD00942869BE
:1025400040F400102861286900F400100090009801
:1025500006B0B0BD40F2000040F66411C2F20000C7
:10256000C2F2000100780A68104408607047000059
:1025700080B543F60040C4F20200016841F40071E6
:102580000160016841F480610160016841F480717B
:102590000160032000F086F80F2000F005F800F03D
:1025A00027F8002080BD000070B540F20006C2F29E
:1025B000000640F214113278C2F200014FF47A732F
:1025C0000968B3FBF2F20446B1FBF2F1084600F0F1
:1025D0005FFB0F2C4FF0010508D838B94FF0FF30E2
:1025E00021460022002500F031F87460284670BDB5
:1025F00082B0002043F640010190C4F202014A6813
:1026000042F480424A604A6802F480420192019A90
:102610000090086840F080500860086800F0805022
:102620000090009802B07047002848BF704700F043
:102630001F01012202FA01F11C2202EAD0004EF22F
:102640000012CEF2000281507047000010B54EF625
:102650000C5CCEF2000CDCF80030C3F3022E8EF0DE
:102660000704042C28BF0424BEF103034FF0FF3EEF
:102670000EFA04F438BF0023A14399400EFA03F385
:102680009A43114300F00F0200F160430901043A3C
:1026900003F564436244002848BF02F10C0319703B
:1026A00010BD00004EF60C51CEF200010A684FF644
:1026B000FF031A4060F30A2242F0806040F0FD7090
:1026C00008607047002804BF012070472DE9F041E1
:1026D00043F60808C4F202080446D8F8F8030D4689
:1026E00000F00700884207D288F8F853D8F8F803BA
:1026F00000F00700A84277D12068810717D541076D
:1027000005D5D8F8001041F4E051C8F800100107D1
:1027100005D5D8F8001041F46041C8F80010D8F889
:102720000010A26821F0F0011143C8F80010C007A2
:1027300040D1D8F8F80300F00700A84207D988F87C
:10274000F853D8F8F80300F00700A8424CD12068ED
:10275000410707D5D8F80010E26821F4E051114391
:10276000C8F80010000708D5D8F80000216920F447
:10277000604040EAC100C8F8000000F07DF8D8F8D9
:10278000001049F63632C1F30311C0F60002515C65
:1027900040F2141220FA01F140F20400C2F20000EB
:1027A0000068C2F200021160FFF7FEFE0020BDE8E3
:1027B000F08100BF6068811E022907D258F8081C0A
:1027C00089015CBF0120BDE8F08111E0012807D13B
:1027D00058F8081C89035CBF0120BDE8F08107E0C0
:1027E00058F8081C890703D40120BDE8F08100BF18
:1027F000D8F8001021F003010843C8F80000FFF7E3
:1028000009FD064641F28837D8F80000616800F0FB
:102810000C00B0EB810F8CD0FFF7FCFC801BB842A2
:10282000F2D90320BDE8F08140F2141043F608010C
:10283000C2F20000C4F202010068096849F646329B
:10284000C1F38221C0F60002515CC840704700000D
:1028500040F2141043F60801C2F20000C4F2020173
:102860000068096849F64632C1F34231C0F60002F9
:10287000515CC8407047000010B543F60404C4F230
:102880000204606800F00C0008280BD0042819BF6F
:1028900042F20040C0F2F40047F64000C0F27D1062
:1028A00010BD00BF206821682368490247F6400137
:1028B000C0F27D1100F03F02C3F388105CBF42F20A
:1028C0000041C0F2F401A1FB00010023FDF7F8FC78
:1028D00021680222C1F3014102EB4101B0FBF1F09A
:1028E00010BD0000002804BF012070472DE9F04111
:1028F00082B00446007843F60006C007C4F2020620
:102900000CD0B06800F00C00042840F081803068E2
:10291000800303D56068002800F068812078800774
:102920001BD5B06810F00C0F09D0B06800F00C0097
:10293000082840F087807068400200F1838030688A
:10294000800703D5E068012840F050813068216994
:1029500020F0F80040EAC10030602078000713D46E
:10296000207840072AD4A569002D00F03A81B0688C
:1029700000F00C00082840F0A580012D40F00E81E9
:10298000012002B0BDE8F0816069002800F082807B
:102990000020C4F247200121C0F8801EFFF73AFC56
:1029A000054600BF706F8007DAD4FFF733FC401B89
:1029B0000228F7D9032002B0BDE8F081306C5FEA4D
:1029C000C0080AD400200190306C40F08050306480
:1029D000306C00F080500190019847F20007C4F27B
:1029E00000073868C00547D4386840F48070386004
:1029F000FFF710FC054600BF3868C0053CD4FFF760
:102A000009FC401B0228F7D9032002B0BDE8F08181
:102A1000B06800F00C00082803D1706840023FF550
:102A200076AF61683068B1F5803F07D0B1F5A02F6F
:102A300040F09A8040F480203060306840F480306C
:102A400030609AE0E068002840F20000C4F24720BD
:102A50005CD001210160FFF7DDFB0546306880078F
:102A60003FF574AFFFF7D6FB401B0228F6D90320D1
:102A700002B0BDE8F08100BFA168306F012905D028
:102A8000052955D140F004003067306F40F0010057
:102A9000306756E00020C4F247200021C0F8801EB5
:102AA000FFF7B8FB054600BF706F80077FF558AF92
:102AB000FFF7B0FB401B0228F6D9032002B0BDE8A7
:102AC000F08100BF0027C4F2472700203866FFF7D7
:102AD000A1FB022D05460DD13068800140F18A80AE
:102AE000FFF798FB401B02284FF00300F4D902B017
:102AF000BDE8F0813068800173D5FFF78BFB401B88
:102B000002284FF00300F5D9F1E700BF0021016072
:102B1000FFF780FB054600BF306880077FF51DAFDB
:102B2000FFF778FB401B02284FF00300F4D9DEE7E3
:102B300020F001003067306F002920F0040030677A
:102B40007AD0FFF767FB054641F28837306F800780
:102B500000F18480FFF75EFB401BB842F6D90320EA
:102B600002B0BDE8F08100BF20F4803030603068F2
:102B7000002920F4802030607AD0FFF74BFB054617
:102B8000306880033FF5CAAEFFF744FB401B642862
:102B9000F6D9032002B0BDE8F08100BF7068E1699A
:102BA00000F480028A4221D1216A00F03F028A4269
:102BB0001CD147F6C071626A0140B1EB821F15D18A
:102BC000A16A4FF6FF73C903994300F44032A1F59F
:102BD00080318A420AD1E16A00F07060B0EB016F87
:102BE00004D1002002B0BDE8F08100BF012002B096
:102BF000BDE8F08104F11C052FCD084340EA8210A6
:102C0000D9034FF6FF729143A1F5803140EA056088
:102C10000843706001203866FFF7FCFA044600BFE5
:102C200030688001DDD4FFF7F5FA001B02284FF071
:102C30000300F5D95BE700BFFFF7ECFA054641F268
:102C4000883700BF306F800708D5FFF7E3FA401BD5
:102C5000B8424FF00300F5D949E700BFB8F1000FC3
:102C60003FF581AE306C20F0805030647BE600BFD1
:102C7000FFF7D0FA054600BF306880037FF54EAEFF
:102C8000FFF7C8FA401B64284FF00300F4D92EE781
:102C9000411E0020B0EB116F1CBF012070474EF2A7
:102CA0001002CEF2000251604EF62351CEF2000126
:102CB000F0230B700721906011607047704700008F
:102CC0007047000090F83C20012A04BF02207047A2
:102CD000B0B501F108053CCDD1E900CE23F47C5319
:102CE00022F470521A432EF4F0431A432CF4E043BA
:102CF0001A4324F4C0431A432A43C96922F4804288
:102D0000036811435964002180F83C100020B0BDD5
:102D100090F83C20012A4FF0020254D010B580F800
:102D20003D200268D2F804E0D2F808C00C682EF00A
:102D30007003234341F2FF74C4F20004A2425360C3
:102D40000EDC40F2FF73C4F200039A4216DCB2F1CB
:102D5000804F2BD040F20043C4F2000324E000BFB8
:102D600040F2FF33C4F201039A4213DC41F6000340
:102D7000C4F200039A4219D0002313E040F6000386
:102D8000C4F200039A4211D040F60043C4F200039B
:102D90000AE000BF44F20003C4F201039A4205D0E6
:102DA00040F20043C4F201039A4204D149682CF076
:102DB0008003194391600121002280F83D1080F8C2
:102DC0003C20BDE81040104670470000002804BFBA
:102DD0000120704710B5044690F83D0028B9002046
:102DE00084F83C00204600F01FF8022084F83D00E3
:102DF0002068211D02F0BEFD012084F8460084F801
:102E00003E0084F83F0084F8400084F8410084F8D4
:102E1000420084F8430084F8440084F8450084F8B4
:102E20003D00002010BD000080B582B0006841F276
:102E30000001C4F20001884214D0B0F1804F0ED1DD
:102E40000020019043F64000C4F20200016841F006
:102E500001010160006800F001000190019802B0DA
:102E600080BD00BF0020009043F64000C4F2020085
:102E70000168002241F0100101600068002100F0AB
:102E80001000009000983620FFF7E0FB362002B0DB
:102E9000BDE88040FFF7C8BB90F83D1001291CBF7A
:102EA00001207047022180F83D10006841F2FF7256
:102EB000C168C4F20002904241F00101C1600DDC22
:102EC00040F2FF71C4F20001884215DCB0F1804F7E
:102ED0002AD040F20041C4F2000123E040F2FF3169
:102EE000C4F20101884213DC41F60001C4F2000182
:102EF000884219D0002113E040F60001C4F200011D
:102F0000884211D040F60041C4F200010AE000BF3F
:102F100044F20001C4F20101884205D040F20041B0
:102F2000C4F20101884206D1816801F00701062937
:102F300004BF00207047016841F0010101600020DA
:102F40007047000090F83C20012A4FF002026CD03C
:102F500080B580F83D20D0F800C04FF67772DCF8DD
:102F6000083023EA0202CCF808200B684F2B29DC3A
:102F70001F2B45DD202B46D0302B44D0402B40F07A
:102F8000AF80D1F804E0C968DCF82030DCF82020FC
:102F900022F00102CCF82020DCF8182022F0F00208
:102FA00042EA011123F00A0242EA0E02CCF818109C
:102FB000CCF82020DCF8081041F0470121F0300166
:102FC00028E000BF6F2B33DDB3F5005F74D0B3F59D
:102FD000805F21D0702B40F08380D1E901E3C96884
:102FE000DCF8082043EA0E0322F47F4243EA012181
:102FF0001143CCF80810DCF8081041F0770109E023
:103000000BB1102B6CD1DCF8081021F070011943C2
:1030100041F00701CCF808100022012180F83D1092
:10302000002180F83C10BDE880401046704700BF8A
:10303000502B21D0602B53D1D1F804E0C968DCF8C3
:103040002030DCF8202022F01002CCF82020DCF820
:10305000182022F4704242EA013123F0A00242EA31
:103060000E12CCF81810CCF82020DCF8081041F033
:10307000670121F01001CDE7D1F804E0C968DCF860
:103080002030DCF8202022F00102CCF82020DCF8EF
:10309000182022F0F00242EA011123F00A0242EA6B
:1030A0000E02CCF81810CCF82020DCF8081041F003
:1030B000570121F02001ADE7D1E901E3C968DCF84F
:1030C000082043EA0E0322F47F4243EA0121114320
:1030D000CCF80810DCF8081041F480419AE700BFF2
:1030E00001229AE7002804BF012070472DE9F0472C
:1030F000044690F83D000D4628B9002084F83C00B5
:10310000204600F049F8022084F83D00206844F28F
:103110000702816891438160211D02F02BFC206829
:103120004FF6FF7881688269D0F820C0D5E9003E6B
:10313000D5E9026A43EA0109AB6922EA080246EAD4
:1031400003234FF6FC46B343D5E9076742EA0A0278
:1031500029691A4342EA062242EA01112CF0AA0226
:103160006B6942EA0E0241EA073142EA0312C0F8F3
:10317000089081610262012084F8460084F83E00D4
:1031800084F83F0084F8420084F8430084F83D004E
:103190000020BDE8F087000080B586B0006840F2EE
:1031A0000042C4F2010200219042CDE90411CDE9B0
:1031B0000211019128D040F60001C4F200018842BA
:1031C0004AD1002043F630010090C4F202010A699E
:1031D00042F004020A610A6902F004020092009AB5
:1031E000009008684FF4405240F0080008600868FA
:1031F000022100F008000090009840F60000C4F2A0
:10320000020000F580601DE043F630000091C4F23A
:103210000200426942F002024261426902F0020287
:103220000092009A00910168C02241F004010160FF
:103230000068032100F004000090009840F60000B0
:10324000C4F202000192022202920022059101A919
:10325000CDE90322FEF7FAFE06B080BD80B590F8F6
:103260003E2090F83F3090F842E090F843C00429A7
:103270000AD0B9B9012A4FF0010208BFBEF1010F0F
:1032800034D0104680BD00BF012B4FF0010208BFB3
:10329000BCF1010FF5D1022180F83F1080F84310F6
:1032A00000681EE0012A4FF0010208BF012BE8D19F
:1032B000BEF1010FE5D1BCF1010FE2D1022280F88D
:1032C0003E2080F83F2080F8422080F8432091B1D2
:1032D0000068016A21F001010162016A41F0010107
:1032E000016210216FF0100209E000BF022180F896
:1032F0003E1080F84210006801216FF00102036A5D
:103300001A400262026A114301620168002241F020
:1033100001010160104680BD7047000070B5044691
:103320000068C5680669B10716D515F0020113D00B
:103330006FF002010161012121778069800703D0CC
:103340002046FFF7E9FF05E0204600F0D7F82046C9
:1033500000F02EFA00202077700719D515F0040030
:1033600016D020686FF00401016102212177806985
:1033700010F4407F04D02046FFF7CEFF06E000BFE8
:10338000204600F0BBF8204600F012FA002020771B
:10339000300717D515F0080014D020686FF0080129
:1033A000016104212177C069800703D02046FFF71F
:1033B000B3FF05E0204600F0A1F8204600F0F8F940
:1033C00000202077F00619D515F0100016D02068DF
:1033D0006FF01001016108212177C06910F4407F6E
:1033E00004D02046FFF798FF06E000BF204600F01B
:1033F00085F8204600F0DCF900202077F00718BFA0
:1034000015F0010002D1300609D412E020686FF0F7
:1034100001010161204600F055FA300609D515F08A
:10342000800006D020686FF0800101612046FFF720
:1034300045FC700609D515F0400006D020686FF0F5
:1034400040010161204600F03FFAB00658BF70BD50
:1034500015F0200008D021686FF0200220460A6194
:10346000BDE87040FFF72CBC70BD000080B586B091
:1034700000680021B0F1804F0591CDE90311029160
:1034800001911BD00021C4F20101884233D10020F8
:10349000009043F63000C4F20200016841F01001D0
:1034A000016000684FF4285100F01000009000986F
:1034B0000020C4F2020000F5805011E043F6300015
:1034C0000091C4F20200016841F00101016000684E
:1034D000062100F00100009000980020C4F20200D4
:1034E0000191022102910021CDE9031101210591F1
:1034F00001A9FEF7ABFD06B080BD000070470000DB
:1035000090F83C30012B04BF022070474FEAB20212
:10351000032A00F2FF802DE9F043DFE802F003B157
:103520003F7F00BF036840F200461C6A1A6A24F01D
:10353000020422F001021A621A46D3F804C052F8BB
:1035400018EF8F6843F48065C4F20106B54244EA7F
:10355000070405D1CF6824F00C0427F004073C438E
:103560000F68B54206D1D1E905582CF440762E43B8
:1035700046EA080C2EF073063743C3F804C09F6177
:103580004F6809695F631C629F6947F008079F6184
:103590009F6927F004079F61B1E000BF036840F214
:1035A00000481C6A1A6A24F4007422F480721A62B9
:1035B0001A46D3F804C052F81CEF8F6843F48065B4
:1035C000C4F20108454544EA072408D1CF6840F217
:1035D000FF463F0224F4406427EA06063443D1F84C
:1035E0000090454506D1D1E905562CF440572E43AD
:1035F00047EA061C2EF0730747EA0907C3F804C020
:10360000DF614F680969DF631C62DF6947F0080703
:10361000DF61DF6927F00407DF6170E0036840F2D3
:103620000045D3F820C01A6A43F4806722F4805220
:103630001A621A465C6852F81C8FD1F800E08E6856
:10364000C4F20105AF4204D14D6924F4804444EA38
:1036500085142CF4005747EA063728F4E64646EA74
:103660000E265C60DE614E6809691E641F62DF69B8
:1036700047F40067DF61DF6927F48067DF613DE0C1
:10368000036840F200481C6A1A6A24F0200422F001
:1036900010021A621A46D3F804C052F818EF8F6865
:1036A00043F48065C4F20108454544EA071407D194
:1036B000CF686FF0400624F0C00406EA07163443D2
:1036C000D1F80090454506D1D1E905562CF4406764
:1036D0002E4347EA860C2EF4E64747EA0927C3F84B
:1036E00004C09F614F6809699F631C629F6947F42A
:1036F00000679F619F6927F480679F6109021368D3
:10370000194311600021BDE8F043002280F83C20FD
:10371000084670470121002280F83C200846704787
:10372000002804BF0120704710B5044690F83D0002
:1037300028B9002084F83C00204600F01FF8022041
:1037400084F83D002068211D02F014F9012084F85E
:10375000460084F83E0084F83F0084F8400084F876
:10376000410084F8420084F8430084F8440084F85F
:10377000450084F83D00002010BD000000680021D5
:10378000C4F20101884218BF704781B00020009048
:1037900043F64400C4F20200016841F001010160F7
:1037A000006800F001000090009801B07047000030
:1037B00070470000C1B1042908D0082914BF412274
:1037C0004022825C012A05D016E000BF3F22825CC5
:1037D000012A11D10222082910D0042914BF80F82F
:1037E000412080F83F200BE090F83E20012A03D1D1
:1037F000022280F83E2003E00120704780F840203C
:10380000006801F01F010122036A02FA01F123EAB4
:1038100001020262026A114341F2FF72C4F2000225
:10382000904201620CDC40F2FF71C4F20001884258
:1038300014DCB0F1804F37D040F2004116E000BFF9
:1038400040F2FF31C4F20101884215DC41F600016B
:10385000C4F20001884227D0002115E040F60001A3
:10386000C4F2000188421FD040F60041C4F20001BA
:10387000884219D01FE000BF44F20001C4F20101E8
:10388000884211D040F20041C4F20101884212D1B5
:10389000416C40F2004340F48062C4F2010341F401
:1038A00000419A42416406D1816801F0070106296E
:1038B00004BF00207047016841F001010160002051
:1038C000704700007047000070470000704700001C
:1038D00070470000B0B582B001680A68CC684B69D7
:1038E00002F02F05202D04F0200505D125B102B0EE
:1038F000BDE8B04002F0F2BA5FEA027C1EBF03F0FE
:10390000010E04F4907313EB0E0341D1036BD50643
:1039100018D5012B16D114F0100313D000220192F8
:103920000A6801924A680192019A496949064BD492
:10393000818DC28DC38D002B18BF914240F006824D
:1039400002B0B0BD13062DD514F080032AD090F834
:103950004120212AF4D18268B2F5805F03D1026947
:10396000002A00F07982026A531C036212784A60CE
:10397000C28C013A1304C284E2D1C86820F08000EE
:10398000C860C86840F04000C86002B0B0BD00BF69
:10399000D30718BF14F4807340F0E280530700F19E
:1039A000E580EAE05206CBD514F04002C8D0CA68E0
:1039B00022F04002CA60202180F8411002B0BDE828
:1039C000B04000F081BC00BFC26B11684B68858DB0
:1039D00099B2002900F0B480A94280F0B180C3857B
:1039E000D169B1F5807F00F0A080016851E8031F24
:1039F000026821F4807142E80313DBB1016851E8E9
:103A0000031F026821F4807142E8031393B1016837
:103A100051E8031F026821F4807142E803134BB19F
:103A2000016851E8031F026821F4807142E8031322
:103A3000002BDAD1016851E8051F026821F001016D
:103A400042E80513BBB3016851E8051F026821F085
:103A5000010142E8051373B3016851E8051F0268CC
:103A600021F0010142E805132BB3016851E8051F5D
:103A7000026821F0010142E80513002BDAD11AE0B7
:103A8000016851E8051F026821F0400142E8051372
:103A9000DBB1016851E8051F026821F0400142E8EE
:103AA000051393B1016851E8051F026821F0400138
:103AB00042E805134BB1016851E8051F026821F087
:103AC000400142E80513002BDAD1202180F8421092
:103AD00000210163016851E8031F026821F0100111
:103AE00042E80313DBB1016851E8031F026821F0CB
:103AF000100142E8031393B1016851E8031F026803
:103B000021F0100142E803134BB1016851E8031F93
:103B1000026821F0100142E80313002BDAD1C16BD7
:103B200004460846FEF70EFA204602214163818DC5
:103B3000C28D891A89B202B0BDE8B040FFF7C6BE97
:103B40008D427FF4FDAED269B2F5807F7FF4F8AE8E
:103B50000222426302B0BDE8B040FFF7B7BE00BF2B
:103B6000436C43F001034364530706D5BEF1000FD5
:103B700003D0436C43F002034364930706D5BEF1C0
:103B8000000F03D0436C43F004034364BCF1000F07
:103B900006D55EEA050303D0436C43F00803436493
:103BA000436C002B3FF4CCAE920605D525B10446FC
:103BB00002F094F9216820464969426C01F0400105
:103BC00002F00802891800F0B98000BF016851E8CE
:103BD000031F026821F4907142E80313BBB301682C
:103BE00051E8031F026821F4907142E8031373B394
:103BF000016851E8031F026821F4907142E8031341
:103C00002BB3016851E8031F026821F4907142E868
:103C10000313002BDAD11AE0016851E8051F02688E
:103C200021F0010142E80513DBB1016851E8051FED
:103C3000026821F0010142E8051393B1016851E8DF
:103C4000051F026821F0010142E805134BB101682C
:103C500051E8051F026821F0010142E80513002B1D
:103C6000DAD1016B012924D1016851E8031F0268F0
:103C700021F0100142E80313DBB1016851E8031F92
:103C8000026821F0100142E8031393B1016851E882
:103C9000031F026821F0100142E803134BB10168D1
:103CA00051E8031F026821F0100142E80313002BC2
:103CB000DAD1202180F842100021016301684969AE
:103CC000490640F1C380016851E8051F026821F0F0
:103CD000400142E80513DBB1016851E8051F0268A5
:103CE00021F0400142E8051393B1016851E8051F36
:103CF000026821F0400142E805134BB1016851E828
:103D0000051F026821F0400142E80513002BDAD1BB
:103D1000C16B002900F09A8045F6D162C0F600021E
:103D2000044608460A65FEF755F900283FF408AE38
:103D3000E06B016D02B0BDE8B04008470446FFF7F4
:103D4000C7FD0020606402B0B0BD00BF891A00BF8B
:103D5000026852E8032F036822F4907243E80325B7
:103D6000BDB3026852E8032F036822F4907243E85F
:103D7000032575B3026852E8032F036822F490729A
:103D800043E803252DB3026852E8032F036822F4A9
:103D9000907243E80325002DDAD11AE0026852E858
:103DA000052F036822F0010243E80525DDB1026812
:103DB00052E8052F036822F0010243E8052595B17A
:103DC000026852E8052F036822F0010243E8052546
:103DD0004DB1026852E8052F036822F0010243E862
:103DE0000525002DDAD1202280F84220002202632E
:103DF000026852E8032F036822F0100243E803250B
:103E0000DDB1026852E8032F036822F0100243E894
:103E1000032595B1026852E8032F036822F01002CF
:103E200043E803254DB1026852E8032F036822F0EE
:103E3000100243E80325002DDAD1022289B2426341
:103E400002B0BDE8B040FFF741BD00BF02B0BDE821
:103E5000B040FFF73DBD00BF026A32F8023B6FF38E
:103E60005F234B60026283E5002804BF0120704796
:103E700010B5044690F8410028B9002084F84000AD
:103E8000204600F021F8242084F841002068C16811
:103E900021F40051C160204602F0A0F820680169B9
:103EA00021F490410161416921F02A014161C16819
:103EB00041F40051C16000202021606484F8411069
:103EC00084F84210606310BD2DE9F04387B00068AC
:103ED00044F20041C4F2000100268842CDE90566A3
:103EE000CDE90366029600F0938044F60001C4F227
:103EF0000001884242D045F20001C4F2000188422C
:103F000040F0828043F630000196C4F2020001695D
:103F100040F6004441F4801101610169C4F20204D9
:103F200001F48011019101990196016802AD41F0FF
:103F30000401016001684FF0020801F004010191E1
:103F40000199019601684FF0030941F008010160F1
:103F50000068082700F00800019001984FF4805095
:103F60000290A4F580602946CDE90386CDF814902F
:103F70000697FEF76BF804203BE000BF43F63000E5
:103F80000196C4F20200016940F6004441F4802128
:103F900001610169C4F2020401F4802101910199D7
:103FA0000196016802AD41F00201016001684FF025
:103FB000020801F0020101910199019601684FF098
:103FC000030941F0080101600068072700F00800BC
:103FD000019001984FF400600290A4F5006029461A
:103FE000CDE90386CDF814900697FEF72FF84FF42D
:103FF0008070029020462946CDF80C800496CDF8BA
:1040000014900697FEF722F807B0BDE8F08300BFD2
:1040100043F630000196C4F20200016940F6004404
:1040200041F4003101610169C4F2020401F400317C
:10403000019101990196016802AD41F00101016011
:1040400001684FF0020801F0010101910199019608
:1040500001684FF0030941F008010160006807277B
:1040600000F008000190019808200290A4F540603B
:104070002946CDE90386CDF814900697FDF7E6FFB3
:104080002020CDE9020820462946CDE9046906979B
:10409000FDF7DCFF262000210022FEF7D7FA2620BC
:1040A000FEF7C2FA07B0BDE8F083000090F8423096
:1040B000202B07D100294FF0010318BF002A05D19A
:1040C0001846704702231846704700BF0023036359
:1040D000816222218285C285436480F84210016991
:1040E000006819B1C16841F48071C160416941F053
:1040F00001014161C16841F02001C160184670476B
:10410000B0B540F27814C2F2000404F128018842EC
:1041100018BFB0BD254615F8280B40F22861C2F241
:104120000001FDF77DFC284621460122BDE8B04094
:10413000FFF7BCBF2DE9F04381B0044690F8410081
:10414000202809D100294FF0010018BF002A07D10B
:1041500001B0BDE8F08300BF022001B0BDE8F083EC
:104160000020606421201D460E4684F84100174659
:10417000FEF750F8A784E784A1688146B1F5805F17
:1041800002D1206900285DD037460020E28C2168EA
:10419000002A5DD06A1C24D0002D4AD0804600BF82
:1041A0000868000608D4FEF735F8A0EB0900A8421D
:1041B0007AD82168C868F3E717B117F8010B04E053
:1041C00038F8020B00276FF35F204860E08C01385D
:1041D000E084E08C0028E3D13AE000BF0A681206D0
:1041E00009D40A68120606D40A6812065CBF0A6877
:1041F0005FEA0262F2D51FB117F8012B05E000BF9C
:1042000030F8022B00276FF35F224A60E28C013AFC
:10421000E284E28C002AE4D11AE000BF30F8022BDD
:1042200000276FF35F224A60E28C013AE284E28C5D
:1042300072B10A68120635D5002FEFD017F8012B9E
:10424000F1E700BF00273046E28C2168002AA1D1A7
:10425000086840061ED42DB3681C14D108684006B7
:104260002AD40868400627D40868400624D4086881
:1042700040064FF00000F1D50DE000BF2068C16896
:104280000068400618D4FDF7C5FFA0EB0900A8425E
:10429000F4D909E00020202184F8411001B0BDE8E4
:1042A000F08300BFFDF7B6FF0320202184F8411002
:1042B00001B0BDE8F08300BF0020202184F8411048
:1042C00001B0BDE8F083000070470000FEE7000089
:1042D0002DE9F04383B0044600680F4601680A9D4B
:1042E0000B9E41F4807199469046016020464FF044
:1042F000011100222B46009600F0ACF850B1206866
:104300000068C00544BF4FF400702064032003B070
:10431000BDE8F083206807F0FE0101610221C0F2D0
:10432000010120462A46334600F07AF920B10120E7
:1043300003B0BDE8F08300BF002002902068324641
:10434000416902918069294602900298204600F056
:10435000D3F958B1206C0428E9D12068016841F4F0
:1043600000710160012003B0BDE8F0832068B9F15D
:10437000010F0AD04FEA1821016120462946324632
:1043800000F0BAF90028E5D120685FFA88F10161F0
:10439000002003B0BDE8F08370B50368044653F80D
:1043A000140F400711D40E46481C29D086BB00BF0D
:1043B0001868400527D4FDF72DFF236853F8140F24
:1043C000400737D518684007F2D5002070BD00BF00
:1043D00018684007F9D41868400514D418684007D5
:1043E000F3D4186840050ED418684007EDD4186857
:1043F000400508D4186840074FF0000048BF70BD62
:1044000018684005E4D56FF480601860042012E05D
:10441000154603E053F8140F4007D6D4186840053A
:10442000F1D4FDF7F7FE401B2368B042F2D958697A
:104430004007EFD4202000212022216384F83D2072
:1044400084F83E10226C10432064012084F83C1054
:1044500070BD00002DE9F041054600681E46144677
:1044600001F47F0201338FB242D0DDF81880B2F53B
:10447000803F40F0878040693840C01BB0FA80F030
:104480004009A04240F0C8804EB924E0406938405D
:10449000C01BB0FA80F04009A04240F0BD80FDF79B
:1044A000B9FEA0EB08012868B142EFD94169394053
:1044B000C91BB1FA81F14909A142E7D19BE000BFD4
:1044C00040693840C01BB0FA80F04009A0424FF06C
:1044D000000040F0A280FDF79DFE28684169394048
:1044E000C91BB1FA81F14909A142E9D183E000BFBA
:1044F000B2F5803F24D100BF41693940C91BB1FAF0
:1045000081F14909A14240F0878041693940C91BC6
:10451000B1FA81F14909A14240F07E8041693940F8
:10452000C91BB1FA81F14909A14275D141693940EC
:10453000C91BB1FA81F14909A142DDD06CE000BF8D
:1045400081693940C91BB1FA81F14909A14263D19E
:1045500081693940C91BB1FA81F14909A1425BD196
:1045600081693940C91BB1FA81F14909A14253D18E
:1045700081693940C91BB1FA81F14909A142DFD0F3
:104580004AE000BF80693840C01BB0FA80F04009A3
:10459000A04241D146B923E080693840C01BB0FA3F
:1045A00080F04009A04237D1FDF734FEA0EB0801AE
:1045B0002868B142F0D981693940C91BB1FA81F14B
:1045C0004909A142E8D116E080693840C01BB0FA21
:1045D00080F04009A0424FF0000018BFBDE8F08114
:1045E000FDF718FE286881693940C91BB1FA81F1CD
:1045F0004909A142E8D100202021286385F83D1017
:1046000085F83E00296C41F02001296485F83C00C2
:104610000120BDE8F08100BF0020BDE8F08100006E
:10462000F0B581B0044600681D4643698FB203EAC5
:104630000701B94202D1002001B0F0BD4169164620
:1046400001323CD0490512D47EB300BFFDF7E2FD34
:10465000411B2068B14203D941693940B9422BD18D
:1046600041693940B942E6D041694905EED5016852
:1046700041F4007101606FF4806141610420002108
:104680002022216384F83D2084F83E10226C1043E0
:10469000206484F83C10012001B0F0BD416939402C
:1046A000B942C8D041694905E1D4FDF7B3FD20689E
:1046B00041693940B942F1D02020E0E7416949051C
:1046C000D5D441693940B942B5D041694905CED404
:1046D00041693940B942AED041694905C7D4416901
:1046E0003940B942A7D041694905C0D44169394030
:1046F000B942E3D19FE7000070B50368044653F860
:10470000140F000611D40E46481C29D086BB00BFEA
:104710001868400527D4FDF77DFD236853F8140F72
:10472000000637D518680006F2D5002070BD00BF1E
:1047300018680006F9D41868400514D418680006F3
:10474000F3D4186840050ED418680006EDD4186834
:10475000400508D4186800064FF0000048BF70BD3F
:1047600018684005E4D56FF480601860042012E0FA
:10477000154603E053F8140F0006D6D41868400518
:10478000F1D4FDF747FD401B2368B042F2D95869C8
:104790000006EFD4202000212022216384F83D2050
:1047A00084F83E10226C10432064012084F83C10F1
:1047B00070BD000010B586B00020019043F63000B7
:1047C000C4F20200016841F2004441F002010160BC
:1047D0000068C4F2020400F0020001900198032076
:1047E0000190022004901120029001A92046FDF7BB
:1047F0002DFC204601210022FDF706FD2046022166
:104800000122FDF701FD204601210122FDF7FCFCFC
:1048100006B010BD2DE9F04F83B041F20045C4F25F
:1048200002050190284602210122FDF7EDFC2846F1
:104830000121FDF7DBFC0290284602210022FDF752
:10484000E3FC284602210122FDF7DEFC2846012177
:10485000FDF7CCFC8246284602210022FDF7D4FC5D
:10486000284602210122FDF7CFFC28460121FDF751
:10487000BDFC8346284602210022FDF7C5FC2846E0
:1048800002210122FDF7C0FC28460121FDF7AEFC04
:104890000446284602210022FDF7B6FC28460221E4
:1048A0000122FDF7B1FC28460121FDF79FFC0646D9
:1048B000284602210022FDF7A7FC284602210122FA
:1048C000FDF7A2FC28460121FDF790FC074628468B
:1048D00002210022FDF798FC284602210122FDF763
:1048E00093FC28460121FDF781FC804628460221E1
:1048F0000022FDF789FC284602210122FDF784FCF5
:1049000028460121FDF772FC81462846022100223B
:10491000FDF77AFC019898B1284601210022FDF7A5
:1049200073FC284602210122FDF76EFC2846022175
:104930000022FDF769FC2846012101220DE000BF9D
:10494000284601210122FDF75FFC284602210122B1
:10495000FDF75AFC284602210022FDF755FC02987B
:10496000002818BF0120BAF1000F18BF4FF0010A4C
:104970004AEA40008000BBF1000F18BF4FF0010B66
:1049800040EA4B00002C18BF012420448000002E78
:1049900018BF012640EA4600002F18BF01273844FF
:1049A0008000B8F1000F18BF4FF0010840EA48003E
:1049B000B9F1000F18BF4FF001094844C0B203B06D
:1049C000BDE8F08FB0B541F20044C4F202040546E0
:1049D000C20920460121FDF717FC204602210122D1
:1049E000FDF712FC204602210022FDF70DFCC5F365
:1049F000801220460121FDF707FC204602210122FA
:104A0000FDF702FC204602210022FDF7FDFBC5F365
:104A1000401220460121FDF7F7FB2046022101222A
:104A2000FDF7F2FB204602210022FDF7EDFBC5F366
:104A3000001220460121FDF7E7FB2046022101225A
:104A4000FDF7E2FB204602210022FDF7DDFBC5F366
:104A5000C00220460121FDF7D7FB2046022101229A
:104A6000FDF7D2FB204602210022FDF7CDFBC5F366
:104A7000800220460121FDF7C7FB204602210122CA
:104A8000FDF7C2FB204602210022FDF7BDFBC5F366
:104A9000400220460121FDF7B7FB204602210122FA
:104AA000FDF7B2FB204602210022FDF7ADFB05F029
:104AB000010220460121FDF7A7FB20460221012229
:104AC000FDF7A2FB204602210022FDF79DFB2046B8
:104AD00001210122BDE8B040FDF796BB10B541F2BF
:104AE0000044C4F20204204601210122FDF78CFBA0
:104AF000204602210122FDF787FB204601210022EA
:104B0000FDF782FB204602210022BDE81040FDF7A0
:104B10007BBB000010B541F20044C4F20204204601
:104B200001210022FDF770FB204602210122FDF742
:104B30006BFB204601210122BDE81040FDF764BB5C
:104B4000B0B541F20044C4F2020420460121012222
:104B5000FDF75AFB204602210122FDF755FB2046B6
:104B60000121FDF743FB0546002820464FF00201D6
:104B70004FF0000218BF0125FDF746FB2846B0BDE7
:104B80002DE9F04F81B042F2D0064DF63079B042B7
:104B900042F2D004CFF6FF79B8BF04464C4541F24B
:104BA0000008D8BF4C4601284FF00007C4F20208A5
:104BB0008A46B8BF012700284FF0000240464FF058
:104BC00080014FF00005C8BF0122FDF71DFBA8F5CD
:104BD000006001213A46FDF717FB40F23C7BC2F230
:104BE000000B002C48BF6442DBF80000BAF1000F54
:104BF0004FF000078463C8BF0127BAF1010FB8BFA7
:104C00000125404602212A46FDF7FEFA40460121D1
:104C10003A46FDF7F9FAB245B8BF56464E45D8BFF9
:104C20004E46002E48BF7642DBF80000C66301B056
:104C3000BDE8F08F10B5FFF7BDFD6B20802100F0BF
:104C40008FF86420FDF7D8F96B20002100F088F878
:104C50001B20182100F084F81C20002100F080F8AF
:104C60001920092100F07CF81A20032100F078F8BF
:104C70003820002100F074F86A20002100F070F85C
:104C80002320002100F06CF83720802100F068F824
:104C9000FFF724FFD020FFF795FEFFF751FF7520A7
:104CA000FFF790FEFFF74CFFFFF718FFD120FFF74B
:104CB00089FEFFF745FF0020FFF7ACFD0446FFF734
:104CC00029FF682C1CBF012010BD6B20012100F0C2
:104CD00047F86C200021002400F042F81920092137
:104CE00000F03EF81A20032100F03AF8204610BDEB
:104CF000F0B581B01C4615460E460746FFF7EEFE9E
:104D00007F00F8B2FFF75EFEFFF71AFF30B1012413
:104D1000FFF700FF204601B0F0BD00BF3046FFF7AF
:104D200051FEFFF70DFFFFF7D9FE47F00100C0B2BB
:104D3000FFF748FEFFF704FF06E000BF0020FFF783
:104D400069FD04F8010B013DE8B20128F6D008B175
:104D50000120F4E70024FFF7DDFE204601B0F0BD9E
:104D6000B0B50C460546FFF7B9FED020FFF72AFE86
:104D7000FFF7E6FE20B1FFF7CDFE0120B0BD00BF7A
:104D80002846FFF71FFEFFF7DBFE2046FFF71AFE5F
:104D9000FFF7D6FE0446002818BF0124FFF7BAFE2D
:104DA0002046B0BDF0B581B01C4615460E460746FC
:104DB000FFF794FE7800C0B2FFF704FEFFF7C0FED5
:104DC00030B10124FFF7A6FE204601B0F0BD00BFC0
:104DD0003046FFF7F7FDFFF7B3FE4DB114F8010BB6
:104DE000FFF7F0FDFFF7ACFE0028EAD1013DF5D159
:104DF0000024FFF78FFE204601B0F0BDFEE7000063
:104E0000FEE700002DE9F04F85B040F2A0640025D8
:104E10004FF480760127C2F200040DF1120B0DF160
:104E200013084FF0000900BF49F0B0008DF81000E2
:104E300004A8CDE90007204678210022012302962C
:104E4000FDF7A0FA0DF11100CDE900072046782109
:104E5000002201238DF811500296FDF793FA1020DD
:104E60008DF812002046782100220123CDE900B7F9
:104E70000296FDF787FA4FF0000A00BF204678211E
:104E8000402201238DF81350CDE900870296FDF7EB
:104E900079FA0AF101004FFA80FABAF1FF3FEDDC2E
:104EA000B9F1070F09F10109BED305B0BDE8F08FD4
:104EB00080B5C820FDF7A0F8BDE8804001F00AB930
:104EC0002DE9F04F89B047B2C0F3C010203A01EB92
:104ED000400427EAE7711027A4F1500047EA1116B1
:104EE00001F00F05102BD7B240F0308140F2A06BDB
:104EF0008DF818004FF0010806A8C2F2000B4FF41D
:104F0000807CCDE900085846782100220123CDF8A5
:104F100008C00594FDF736FA0DF11900CDE9000837
:104F200058467821002201234FF480748DF81960CF
:104F30000294FDF727FA0DF11A00CDE90008584652
:104F40007821002201238DF81A5002944FF48074C6
:104F5000FDF718FA49F676513801C0F60001085CF1
:104F600001EB07178DF81B0004950DF11B05584642
:104F7000782140220123CDE900580294FDF702FA7E
:104F8000787897F8029097F803A003963E798DF809
:104F90001B005846782140220123CDE90058029495
:104FA000FDF7F0F958467821402201238DF81B9037
:104FB000CDE900580294FDF7E5F9584678214022E2
:104FC00001238DF81BA0CDE900580294FDF7DAF912
:104FD00058467821402201238DF81B60CDE9005806
:104FE0000294FDF7CFF9787978218DF81B005846A7
:104FF00040220123CDE900580294FDF7C3F9B879A6
:1050000078218DF81B00584640220123CDE9005835
:105010000294FDF7B7F9F87978218DF81B0058460E
:1050200040220123CDE900580294FDF7ABF9059821
:1050300078214F388DF81C0007A8CDE900085846A4
:10504000002201230294FDF79DF9039878218DF841
:105050001D000DF11D00CDE9000858460022012376
:105060000294FDF78FF9049878218DF81E000DF158
:105070001E00CDE900085846002201230294FDF7E6
:1050800081F9387A0DF11F058DF81F0058467821F7
:1050900040220123CDE900580294FDF773F9787A94
:1050A00078218DF81F00584640220123CDE9005891
:1050B0000294FDF767F9B87A78218DF81F005846F9
:1050C00040220123CDE900580294FDF75BF9F87AFC
:1050D00078218DF81F00584640220123CDE9005861
:1050E0000294FDF74FF9387B78218DF81F00584660
:1050F00040220123CDE900580294FDF743F9787B63
:1051000078218DF81F00584640220123CDE9005830
:105110000294FDF737F9B87B78218DF81F005846C7
:1051200040220123CDE900580294FDF72BF9F87BCA
:10513000CDE900588DF81F00584678214022012300
:105140000294FDF71FF909B0BDE8F08F40F2A06BA3
:105150008DF820004FF0010908A8C2F2000B4FF4AF
:10516000807ACDE900095846782100220123CDF844
:1051700008A0FDF707F90DF12100CDE90009584617
:105180007821002201238DF82160CDF808A0FDF7D9
:10519000F9F80DF12200CDE90009584678210022E6
:1051A00001238DF82250CDF808A0FDF7EBF849F661
:1051B0004E3107EB4700C0F6000111F8102001EB5B
:1051C00040078DF823200DF1230558467821402211
:1051D0000123CDE90059CDF808A0FDF7D3F8787880
:1051E000BE78FC7897F804808DF823005846782123
:1051F00040220123CDE90059CDF808A0FDF7C2F8FF
:1052000058467821402201238DF82360CDE90059CA
:10521000CDF808A0FDF7B6F85846782140220123C2
:105220008DF82340CDE90059CDF808A0FDF7AAF884
:1052300058467821402201238DF82380CDE900597A
:10524000CDF808A0FDF79EF8787978218DF8230035
:10525000584640220123CDE90059CDF808A0FDF7BA
:1052600091F809B0BDE8F08F2DE9F04115461278AC
:10527000002A08BFBDE8F08198460E460746002484
:10528000F8B2F1B2D2B24346FFF71AFE0837F8B2CD
:1052900001347828E0B288BF02362A5C88BF002734
:1052A000002AEDD1BDE8F0817047000040F2847023
:1052B000C2F2000000680021416240F2E810C2F230
:1052C00000004180C180704740F61400C2F2000027
:1052D00000680021416240F2E810C2F20000418102
:1052E000C18170477047000080B5FDF733F9BDE814
:1052F000804003F0A1BE000070B592B006AC20461D
:105300003021FBF757FA002543F640000595CDE91B
:105310000355CDE901550095C4F20200016802264B
:1053200041F080510160006800F0805000900098CA
:1053300047F200000095C4F20000016841F480418A
:105340000160006800F480400090009801200990FE
:1053500010200A9008200E90A820CDE90F06042006
:10536000119020460696CDE90C65FDF7BBFA18B101
:1053700072B600BFFEE700BF0F20CDE901064FF473
:10538000A05004904FF48050059001A8052103958A
:10539000FDF798F910B172B6FEE700BF12B070BD0C
:1053A0004EF68850CEF20000016841F470010160B1
:1053B0007047000070B52DED028B40F21C35C2F233
:1053C0000005697807290AD8DFE801F004702E5A31
:1053D0000C80BA62FCF776F9012800F07180BDEC10
:1053E000028B70BDE9780A29F9D8DFE811F0C50011
:1053F000ED00E9000B00F900DB001F01C500FD0016
:10540000F300270140F24001C2F200019FEDA18AA2
:10541000D1ED000A05F1080104460846B0EE480A3D
:105420004FF47A71AAE100BF40F24460C2F200007A
:1054300000F03EFB012802D0A8780128CFD141F22C
:105440000000C4F20200012100F58064A97020462A
:1054500040210122FCF7D8FE00204FF47A7100268B
:1054600000F068FF0028BAD0204640210022FCF757
:10547000CBFE6878AE7001306870BDEC028B70BDF9
:1054800006216970BDEC028BBDE87040FCF728B8BE
:1054900041F20000C4F2020000F580600821BDEC7A
:1054A000028BBDE87040FCF7A7BE00BF41F20000D0
:1054B000C4F202000821FCF799FE01287FF48FAFA7
:1054C000687801306870BDEC028B70BDE9780A29FC
:1054D0003FF685AFDFE811F00C0078007400E000C3
:1054E00084006600C400500088007E00CC0000BF2D
:1054F00040F24001C2F2000191ED000A40F2286240
:10550000DFED640AC2F20002B7EE001A0121044680
:10551000FBF7FAFF03287FF462AF052040F2DC516D
:1055200000F008FF297808B9287918B9013101205D
:1055300029702871C8B2022800F07C814FE700BFB3
:10554000E97810293FF64BAFDFE811F04201120075
:105550005A00A40112006800080130012C00C601A5
:10556000E60012005A00820112006800B80000BF75
:10557000B0EE000A2AE000BF40F24001C2F2000192
:1055800091ED000A40F22862DFEDDF0AC2F200026C
:10559000B7EE001A04460121FBF7B6FF032800F01E
:1055A000FE801CE741F20001C4F2020104460846F5
:1055B0000821FCF71BFE0128014600F0F3800EE7EE
:1055C0009FEDD40A1EE000BFB6EE000ADFEDD10A5F
:1055D0000EE000BF9FEDCF0AF6EE000A22E000BF0A
:1055E000B6EE000AE4E000BFB6EE000AF6EE080AE6
:1055F0009FEDC71AFCF7DAFB012800F07F81EEE689
:10560000B7EE080ADFEDC10A9FEDC11A044600F0AB
:105610006BFA012800F06C81E1E600BFDFEDBB0A08
:10562000B7EE080A9FEDBA1A5CE100BF9FEDBD0A14
:10563000DFEDBD0A9FEDBD1A54E100BF40F240010D
:10564000C2F200019FEDB08AD1ED000A05F1080118
:1056500004460846B0EE480A40F2E7313EE000BF9B
:105660009FEDB00ADFEDB00A9FEDAC1A3AE100BF42
:1056700040F24001C2F200019FEDA38AD1ED000A81
:1056800005F1080104460846B0EE480A40F2E5314B
:1056900024E000BF0000000040F24001C2F200011F
:1056A0009FED998AD1ED000A05F1080104460846EC
:1056B000B0EE480A40F2E63160E000BF40F240013F
:1056C000C2F200019FED908AD1ED000A05F10801B8
:1056D00004460846B0EE480A4FF4147103F036FC55
:1056E00040F22862C2F20002B7EE001A2046012101
:1056F000F0EE480AFBF708FF042801467FF46FAE7E
:105700002046FBF7D5FEE97807206870481CE87052
:10571000BDEC028B70BD00BF40F24001C2F200013F
:105720009FED798AD1ED000A05F10801044608468B
:10573000B0EE480A40F2522103F008FC40F2286221
:10574000C2F20002B7EE001A20460121F0EE480A2C
:10575000FBF7DAFE012822D041E600BF40F240010B
:10576000C2F200019FED688AD1ED000A05F108013F
:1057700004460846B0EE480A40F2532103F0E6FB27
:1057800040F22862C2F20002B7EE001A2046012160
:10579000F0EE480AFBF7B8FE04287FF420AE20465E
:1057A000FBF786FE2046FCF71BF9A7E09FED590AA0
:1057B000DFED5B0A9FED591A0446FCF7F7FA012862
:1057C00001467FF40CAE2046FCF7E8F896E000BFF7
:1057D00040F24001C2F200019FED4B8AD1ED000A78
:1057E00005F1080104460846B0EE480A40F2B92126
:1057F00003F0ACFB40F22862C2F20002B7EE001ADE
:1058000020460121F0EE480AFBF77EFE03287FF4D4
:10581000E6AD05204FF47A7100F08CFD297808B9C7
:10582000287918B90131012029702871C8B20328DC
:105830007FF4D5AD2046FBF73BFE2046FCF7D0F8C1
:105840000020E9782870481CE870BDEC028B70BD20
:1058500040F24001C2F200019FED2B8AD1ED000A17
:1058600005F1080104460846B0EE480A40F251210D
:1058700003F06CFB40F22862C2F20002B7EE001A9D
:1058800020460121F0EE480AFBF73EFE02283FF4D5
:1058900086AFA4E540F24001C2F200019FED1A8AF2
:1058A000D1ED000A05F1080104460846B0EE480AA9
:1058B0004FF4157103F04AFB40F22862C2F2000275
:1058C000B7EE001A20460121F0EE480AFBF71CFE55
:1058D00003283FF464AF82E5DFED0F0A9FED0F1A56
:1058E000B7EE080A044600F0F9F901287FF477AD15
:1058F0002046FCF753F82046FBF7F2FDE87801302C
:10590000E870BDEC028B70BD000000001F85EB3E0F
:10591000CDCC4C3DCDCC4C3FD7A3703F0AD7A33C58
:10592000CDCC4C3E3333333F1F856B3F8FC2F53CAC
:1059300010B540F23C74C2F2000420460421FDF789
:1059400039FF20460821BDE81040FDF733BF0000B5
:1059500080B540F2CC70C2F20000FDF7DFFCFBF72F
:105960005FFD40F24840C2F20000BDE88040FFF712
:1059700021BD0000B0B540F6FF3E0568C4F2000E40
:1059800040F2004C7045C4F2010C25DCB0F1804FB0
:105990002FD040F20043C4F20003984229D040F6D1
:1059A0000003C4F20003984223D041F6FF73C4F20F
:1059B0000003984228DC70453ADCB0F1804F5BD0A0
:1059C00040F20043C4F20003984255D040F6000371
:1059D000C4F200034EE000BF40F60043C4F20003EF
:1059E000984206D0604504D00023C4F201039842D7
:1059F000DBD14B6825F0700243EA020541F6FF73E4
:105A0000C4F200039842D6DD43F6FF73C4F20103EB
:105A100098421FDC42F20003C4F2000398422BD0EC
:105A20000023C4F20103984226D0604524D028E028
:105A300040F60043C4F2000398421DD041F6000333
:105A4000C4F20003984217D041F60043C4F20003A9
:105A500010E000BF44F20003C4F2010398420BD0EF
:105A600044F60003C4F20103984205D044F2004317
:105A7000C4F20103984204D1CB6825F4407243EA92
:105A800002050A688C684B69C46240F480648262D3
:105A9000644504BF09690163026825F0800142F092
:105AA000040219430260012242610160B0BD00009E
:105AB000014640F26020C2F2000082780B7830325A
:105AC0009A4203D1002181700120704780B540F2D5
:105AD000A010C2F2000001226423FEF72BFB002875
